{
  "contractName": "CrowdSource",
  "abi": [
    {
      "constant": true,
      "inputs": [
        {
          "name": "",
          "type": "uint256"
        }
      ],
      "name": "contributions",
      "outputs": [
        {
          "name": "",
          "type": "string"
        }
      ],
      "payable": false,
      "stateMutability": "view",
      "type": "function"
    },
    {
      "constant": true,
      "inputs": [],
      "name": "contributionCount",
      "outputs": [
        {
          "name": "",
          "type": "uint256"
        }
      ],
      "payable": false,
      "stateMutability": "view",
      "type": "function"
    },
    {
      "constant": true,
      "inputs": [],
      "name": "problemCount",
      "outputs": [
        {
          "name": "",
          "type": "uint256"
        }
      ],
      "payable": false,
      "stateMutability": "view",
      "type": "function"
    },
    {
      "constant": true,
      "inputs": [
        {
          "name": "",
          "type": "uint256"
        }
      ],
      "name": "owner",
      "outputs": [
        {
          "name": "",
          "type": "address"
        }
      ],
      "payable": false,
      "stateMutability": "view",
      "type": "function"
    },
    {
      "constant": true,
      "inputs": [
        {
          "name": "",
          "type": "uint256"
        }
      ],
      "name": "reportClicks",
      "outputs": [
        {
          "name": "",
          "type": "uint256"
        }
      ],
      "payable": false,
      "stateMutability": "view",
      "type": "function"
    },
    {
      "constant": true,
      "inputs": [
        {
          "name": "",
          "type": "uint256"
        }
      ],
      "name": "problems",
      "outputs": [
        {
          "name": "subject",
          "type": "string"
        },
        {
          "name": "topic",
          "type": "string"
        },
        {
          "name": "question",
          "type": "string"
        },
        {
          "name": "options",
          "type": "string"
        },
        {
          "name": "imgHash",
          "type": "string"
        },
        {
          "name": "ans",
          "type": "uint256"
        },
        {
          "name": "approve",
          "type": "bool"
        },
        {
          "name": "isApproved",
          "type": "bool"
        },
        {
          "name": "d",
          "type": "uint8"
        }
      ],
      "payable": false,
      "stateMutability": "view",
      "type": "function"
    },
    {
      "constant": true,
      "inputs": [
        {
          "name": "",
          "type": "uint256"
        }
      ],
      "name": "pool",
      "outputs": [
        {
          "name": "",
          "type": "uint256"
        }
      ],
      "payable": false,
      "stateMutability": "view",
      "type": "function"
    },
    {
      "anonymous": false,
      "inputs": [
        {
          "indexed": false,
          "name": "subject",
          "type": "string"
        },
        {
          "indexed": false,
          "name": "topic",
          "type": "string"
        },
        {
          "indexed": false,
          "name": "question",
          "type": "string"
        },
        {
          "indexed": false,
          "name": "options",
          "type": "string"
        },
        {
          "indexed": false,
          "name": "imgHash",
          "type": "string"
        },
        {
          "indexed": false,
          "name": "ans",
          "type": "uint256"
        },
        {
          "indexed": false,
          "name": "approve",
          "type": "bool"
        },
        {
          "indexed": false,
          "name": "isApproved",
          "type": "bool"
        },
        {
          "indexed": false,
          "name": "d",
          "type": "uint8"
        }
      ],
      "name": "SubmitQuestion",
      "type": "event"
    },
    {
      "constant": false,
      "inputs": [
        {
          "name": "_subject",
          "type": "string"
        },
        {
          "name": "_topic",
          "type": "string"
        },
        {
          "name": "_question",
          "type": "string"
        },
        {
          "name": "_options",
          "type": "string"
        },
        {
          "name": "_imgHash",
          "type": "string"
        },
        {
          "name": "_ans",
          "type": "uint256"
        },
        {
          "name": "_approve",
          "type": "bool"
        },
        {
          "name": "_isApproved",
          "type": "bool"
        },
        {
          "name": "_d",
          "type": "uint8"
        }
      ],
      "name": "addToBlockchain",
      "outputs": [],
      "payable": false,
      "stateMutability": "nonpayable",
      "type": "function"
    },
    {
      "constant": false,
      "inputs": [
        {
          "name": "_problemCount",
          "type": "uint256"
        },
        {
          "name": "_subject",
          "type": "string"
        },
        {
          "name": "_topic",
          "type": "string"
        },
        {
          "name": "_question",
          "type": "string"
        },
        {
          "name": "_options",
          "type": "string"
        },
        {
          "name": "_imgHash",
          "type": "string"
        },
        {
          "name": "_ans",
          "type": "uint256"
        },
        {
          "name": "_approve",
          "type": "bool"
        },
        {
          "name": "_isApproved",
          "type": "bool"
        },
        {
          "name": "_d",
          "type": "uint8"
        }
      ],
      "name": "questionAcceptReject",
      "outputs": [],
      "payable": false,
      "stateMutability": "nonpayable",
      "type": "function"
    },
    {
      "constant": true,
      "inputs": [
        {
          "name": "_topic",
          "type": "string"
        }
      ],
      "name": "getCountOfTopic",
      "outputs": [
        {
          "name": "",
          "type": "uint256"
        }
      ],
      "payable": false,
      "stateMutability": "view",
      "type": "function"
    },
    {
      "constant": false,
      "inputs": [
        {
          "name": "_problemCount",
          "type": "uint256"
        }
      ],
      "name": "contribute",
      "outputs": [],
      "payable": true,
      "stateMutability": "payable",
      "type": "function"
    },
    {
      "constant": true,
      "inputs": [
        {
          "name": "_id",
          "type": "uint256"
        }
      ],
      "name": "getOwner",
      "outputs": [
        {
          "name": "",
          "type": "address"
        }
      ],
      "payable": false,
      "stateMutability": "view",
      "type": "function"
    },
    {
      "constant": false,
      "inputs": [
        {
          "name": "_id",
          "type": "uint256"
        }
      ],
      "name": "addAContribution",
      "outputs": [],
      "payable": false,
      "stateMutability": "nonpayable",
      "type": "function"
    },
    {
      "constant": false,
      "inputs": [
        {
          "name": "_id",
          "type": "uint256"
        }
      ],
      "name": "report",
      "outputs": [],
      "payable": false,
      "stateMutability": "nonpayable",
      "type": "function"
    }
  ],
  "bytecode": "0x608060405234801561001057600080fd5b50611a62806100206000396000f3fe6080604052600436106100ca576000357c0100000000000000000000000000000000000000000000000000000000900480631cee0700146100cf5780633e4ec1cd1461010c5780635b18056b14610149578063734ca3f5146101745780638c6931431461019d5780639115e71b146101c6578063969b1cdb146101f1578063a06dd7861461021a578063a123c33e14610243578063c1cbbca714610280578063c41a360a1461029c578063de9a3450146102d9578063eba4f36614610316578063fe3131121461035b575b600080fd5b3480156100db57600080fd5b506100f660048036036100f19190810190611512565b610398565b6040516101039190611751565b60405180910390f35b34801561011857600080fd5b50610133600480360361012e9190810190611393565b610448565b60405161014091906118d3565b60405180910390f35b34801561015557600080fd5b5061015e6104c2565b60405161016b91906118d3565b60405180910390f35b34801561018057600080fd5b5061019b60048036036101969190810190611512565b6104c8565b005b3480156101a957600080fd5b506101c460048036036101bf919081019061153b565b610542565b005b3480156101d257600080fd5b506101db610789565b6040516101e891906118d3565b60405180910390f35b3480156101fd57600080fd5b5061021860048036036102139190810190611512565b61078f565b005b34801561022657600080fd5b50610241600480360361023c91908101906113d4565b610830565b005b34801561024f57600080fd5b5061026a60048036036102659190810190611512565b610a42565b6040516102779190611736565b60405180910390f35b61029a60048036036102959190810190611512565b610a75565b005b3480156102a857600080fd5b506102c360048036036102be9190810190611512565b610b1a565b6040516102d09190611736565b60405180910390f35b3480156102e557600080fd5b5061030060048036036102fb9190810190611512565b610b57565b60405161030d91906118d3565b60405180910390f35b34801561032257600080fd5b5061033d60048036036103389190810190611512565b610b6f565b60405161035299989796959493929190611823565b60405180910390f35b34801561036757600080fd5b50610382600480360361037d9190810190611512565b610edc565b60405161038f91906118d3565b60405180910390f35b60066020528060005260406000206000915090508054600181600116156101000203166002900480601f0160208091040260200160405190810160405280929190818152602001828054600181600116156101000203166002900480156104405780601f1061041557610100808354040283529160200191610440565b820191906000526020600020905b81548152906001019060200180831161042357829003601f168201915b505050505081565b6000806003836040518082805190602001908083835b602083101515610483578051825260208201915060208101905060208303925061045e565b6001836020036101000a038019825116818451168082178552505050505050905001915050908152602001604051809103902054905080915050919050565b60015481565b6001600081548092919060010191905055506105166004600083815260200190815260200160002060009054906101000a900473ffffffffffffffffffffffffffffffffffffffff16610ef4565b600660006001548152602001908152602001600020908051906020019061053e9291906111dc565b5050565b6001151583151514801561055a575060011515821515145b156105db576003886040518082805190602001908083835b6020831015156105975780518252602082019150602081019050602083039250610572565b6001836020036101000a0380198251168184511680821785525050505050509050019150509081526020016040518091039020600081548092919060010191905055505b610120604051908101604052808a8152602001898152602001888152602001878152602001868152602001858152602001841515815260200183151581526020018260ff16815250600260008c8152602001908152602001600020600082015181600001908051906020019061065292919061125c565b50602082015181600101908051906020019061066f92919061125c565b50604082015181600201908051906020019061068c92919061125c565b5060608201518160030190805190602001906106a992919061125c565b5060808201518160040190805190602001906106c692919061125c565b5060a0820151816005015560c08201518160060160006101000a81548160ff02191690831515021790555060e08201518160060160016101000a81548160ff0219169083151502179055506101008201518160060160026101000a81548160ff021916908360ff1602179055509050507ff504514dffe928dbd987b886786e6041dd88134bee404da85b81d077cf65a29489898989898989898960405161077599989796959493929190611773565b60405180910390a150505050505050505050565b60005481565b600760008281526020019081526020016000206000815480929190600101919050555060016007600083815260200190815260200160002054111561082d5760006002600083815260200190815260200160002060060160006101000a81548160ff02191690831515021790555060006002600083815260200190815260200160002060060160016101000a81548160ff0219169083151502179055505b50565b6000808154809291906001019190505550610120604051908101604052808a8152602001898152602001888152602001878152602001868152602001858152602001841515815260200183151581526020018260ff16815250600260008054815260200190815260200160002060008201518160000190805190602001906108b992919061125c565b5060208201518160010190805190602001906108d692919061125c565b5060408201518160020190805190602001906108f392919061125c565b50606082015181600301908051906020019061091092919061125c565b50608082015181600401908051906020019061092d92919061125c565b5060a0820151816005015560c08201518160060160006101000a81548160ff02191690831515021790555060e08201518160060160016101000a81548160ff0219169083151502179055506101008201518160060160026101000a81548160ff021916908360ff16021790555090505033600460008054815260200190815260200160002060006101000a81548173ffffffffffffffffffffffffffffffffffffffff021916908373ffffffffffffffffffffffffffffffffffffffff1602179055507ff504514dffe928dbd987b886786e6041dd88134bee404da85b81d077cf65a294898989898989898989604051610a2f99989796959493929190611773565b60405180910390a1505050505050505050565b60046020528060005260406000206000915054906101000a900473ffffffffffffffffffffffffffffffffffffffff1681565b6001600560008381526020019081526020016000206000828254019250508190555060006004600083815260200190815260200160002060009054906101000a900473ffffffffffffffffffffffffffffffffffffffff1690508073ffffffffffffffffffffffffffffffffffffffff166108fc349081150290604051600060405180830381858888f19350505050158015610b15573d6000803e3d6000fd5b505050565b60006004600083815260200190815260200160002060009054906101000a900473ffffffffffffffffffffffffffffffffffffffff169050919050565b60076020528060005260406000206000915090505481565b6002602052806000526040600020600091509050806000018054600181600116156101000203166002900480601f016020809104026020016040519081016040528092919081815260200182805460018160011615610100020316600290048015610c1b5780601f10610bf057610100808354040283529160200191610c1b565b820191906000526020600020905b815481529060010190602001808311610bfe57829003601f168201915b505050505090806001018054600181600116156101000203166002900480601f016020809104026020016040519081016040528092919081815260200182805460018160011615610100020316600290048015610cb95780601f10610c8e57610100808354040283529160200191610cb9565b820191906000526020600020905b815481529060010190602001808311610c9c57829003601f168201915b505050505090806002018054600181600116156101000203166002900480601f016020809104026020016040519081016040528092919081815260200182805460018160011615610100020316600290048015610d575780601f10610d2c57610100808354040283529160200191610d57565b820191906000526020600020905b815481529060010190602001808311610d3a57829003601f168201915b505050505090806003018054600181600116156101000203166002900480601f016020809104026020016040519081016040528092919081815260200182805460018160011615610100020316600290048015610df55780601f10610dca57610100808354040283529160200191610df5565b820191906000526020600020905b815481529060010190602001808311610dd857829003601f168201915b505050505090806004018054600181600116156101000203166002900480601f016020809104026020016040519081016040528092919081815260200182805460018160011615610100020316600290048015610e935780601f10610e6857610100808354040283529160200191610e93565b820191906000526020600020905b815481529060010190602001808311610e7657829003601f168201915b5050505050908060050154908060060160009054906101000a900460ff16908060060160019054906101000a900460ff16908060060160029054906101000a900460ff16905089565b60056020528060005260406000206000915090505481565b60608060286040519080825280601f01601f191660200182016040528015610f2b5781602001600182028038833980820191505090505b50905060008090505b60148110156111005760008160130360080260020a8573ffffffffffffffffffffffffffffffffffffffff16811515610f6957fe5b047f010000000000000000000000000000000000000000000000000000000000000002905060006010827f0100000000000000000000000000000000000000000000000000000000000000900460ff16811515610fc257fe5b047f01000000000000000000000000000000000000000000000000000000000000000290506000817f01000000000000000000000000000000000000000000000000000000000000009004601002837f01000000000000000000000000000000000000000000000000000000000000009004037f01000000000000000000000000000000000000000000000000000000000000000290506110628261110a565b858560020281518110151561107357fe5b9060200101907effffffffffffffffffffffffffffffffffffffffffffffffffffffffffffff1916908160001a9053506110ac8161110a565b85600186600202018151811015156110c057fe5b9060200101907effffffffffffffffffffffffffffffffffffffffffffffffffffffffffffff1916908160001a9053505050508080600101915050610f34565b5080915050919050565b6000600a827f0100000000000000000000000000000000000000000000000000000000000000900460ff16101561118b576030827f01000000000000000000000000000000000000000000000000000000000000009004017f01000000000000000000000000000000000000000000000000000000000000000290506111d7565b6057827f01000000000000000000000000000000000000000000000000000000000000009004017f01000000000000000000000000000000000000000000000000000000000000000290505b919050565b828054600181600116156101000203166002900490600052602060002090601f016020900481019282601f1061121d57805160ff191683800117855561124b565b8280016001018555821561124b579182015b8281111561124a57825182559160200191906001019061122f565b5b50905061125891906112dc565b5090565b828054600181600116156101000203166002900490600052602060002090601f016020900481019282601f1061129d57805160ff19168380011785556112cb565b828001600101855582156112cb579182015b828111156112ca5782518255916020019190600101906112af565b5b5090506112d891906112dc565b5090565b6112fe91905b808211156112fa5760008160009055506001016112e2565b5090565b90565b600061130d82356119b2565b905092915050565b600082601f830112151561132857600080fd5b813561133b6113368261191b565b6118ee565b9150808252602083016020830185838301111561135757600080fd5b6113628382846119d5565b50505092915050565b600061137782356119be565b905092915050565b600061138b82356119c8565b905092915050565b6000602082840312156113a557600080fd5b600082013567ffffffffffffffff8111156113bf57600080fd5b6113cb84828501611315565b91505092915050565b60008060008060008060008060006101208a8c0312156113f357600080fd5b60008a013567ffffffffffffffff81111561140d57600080fd5b6114198c828d01611315565b99505060208a013567ffffffffffffffff81111561143657600080fd5b6114428c828d01611315565b98505060408a013567ffffffffffffffff81111561145f57600080fd5b61146b8c828d01611315565b97505060608a013567ffffffffffffffff81111561148857600080fd5b6114948c828d01611315565b96505060808a013567ffffffffffffffff8111156114b157600080fd5b6114bd8c828d01611315565b95505060a06114ce8c828d0161136b565b94505060c06114df8c828d01611301565b93505060e06114f08c828d01611301565b9250506101006115028c828d0161137f565b9150509295985092959850929598565b60006020828403121561152457600080fd5b60006115328482850161136b565b91505092915050565b6000806000806000806000806000806101408b8d03121561155b57600080fd5b60006115698d828e0161136b565b9a505060208b013567ffffffffffffffff81111561158657600080fd5b6115928d828e01611315565b99505060408b013567ffffffffffffffff8111156115af57600080fd5b6115bb8d828e01611315565b98505060608b013567ffffffffffffffff8111156115d857600080fd5b6115e48d828e01611315565b97505060808b013567ffffffffffffffff81111561160157600080fd5b61160d8d828e01611315565b96505060a08b013567ffffffffffffffff81111561162a57600080fd5b6116368d828e01611315565b95505060c06116478d828e0161136b565b94505060e06116588d828e01611301565b93505061010061166a8d828e01611301565b92505061012061167c8d828e0161137f565b9150509295989b9194979a5092959850565b6116978161195d565b82525050565b6116a68161196f565b82525050565b60006116b782611952565b8084526116cb8160208601602086016119e4565b6116d481611a17565b602085010191505092915050565b60006116ed82611947565b8084526117018160208601602086016119e4565b61170a81611a17565b602085010191505092915050565b6117218161199b565b82525050565b611730816119a5565b82525050565b600060208201905061174b600083018461168e565b92915050565b6000602082019050818103600083015261176b81846116e2565b905092915050565b600061012082019050818103600083015261178e818c6116ac565b905081810360208301526117a2818b6116ac565b905081810360408301526117b6818a6116ac565b905081810360608301526117ca81896116ac565b905081810360808301526117de81886116ac565b90506117ed60a0830187611718565b6117fa60c083018661169d565b61180760e083018561169d565b611815610100830184611727565b9a9950505050505050505050565b600061012082019050818103600083015261183e818c6116e2565b90508181036020830152611852818b6116e2565b90508181036040830152611866818a6116e2565b9050818103606083015261187a81896116e2565b9050818103608083015261188e81886116e2565b905061189d60a0830187611718565b6118aa60c083018661169d565b6118b760e083018561169d565b6118c5610100830184611727565b9a9950505050505050505050565b60006020820190506118e86000830184611718565b92915050565b6000604051905081810181811067ffffffffffffffff8211171561191157600080fd5b8060405250919050565b600067ffffffffffffffff82111561193257600080fd5b601f19601f8301169050602081019050919050565b600081519050919050565b600081519050919050565b60006119688261197b565b9050919050565b60008115159050919050565b600073ffffffffffffffffffffffffffffffffffffffff82169050919050565b6000819050919050565b600060ff82169050919050565b60008115159050919050565b6000819050919050565b600060ff82169050919050565b82818337600083830152505050565b60005b83811015611a025780820151818401526020810190506119e7565b83811115611a11576000848401525b50505050565b6000601f19601f830116905091905056fea265627a7a72305820e70758d12976a77bcdf62acc8467c25bf14923d99e7ef57fc4a745e99314a6226c6578706572696d656e74616cf50037",
  "source": "// SPDX-License-Identifier: MIT\r\npragma experimental ABIEncoderV2;\r\npragma solidity ^0.5.1;\r\n\r\ncontract CrowdSource {\r\n    // Problem[] problems;\r\n    uint256 public problemCount;\r\n    uint256 public contributionCount;\r\n\r\n    mapping(uint256 => Problem) public problems;\r\n\r\n    // CQT - Count of Questions per Topic\r\n    mapping(string => uint256) cqt;\r\n\r\n    //uint is id\r\n    mapping(uint256 => address payable) public owner;\r\n    // id => amount\r\n    mapping(uint256 => uint256) public pool;\r\n\r\n    mapping(uint256 => string) public contributions;\r\n\r\n    //report count id(uint)=>uint(count)\r\n    mapping(uint256 => uint256) public reportClicks;\r\n\r\n\r\n    event SubmitQuestion(\r\n        string subject,\r\n        string topic,\r\n        string question,\r\n        string options,\r\n        string imgHash,\r\n        uint256 ans,\r\n        bool approve,\r\n        bool isApproved,\r\n        uint8 d\r\n    );\r\n\r\n    struct Problem {\r\n        string subject;\r\n        string topic;\r\n        string question;\r\n        string options;\r\n        string imgHash;\r\n        uint256 ans;\r\n        bool approve;\r\n        bool isApproved;\r\n        uint8 d;\r\n    }\r\n\r\n    function addToBlockchain(\r\n        string memory _subject,\r\n        string memory _topic,\r\n        string memory _question,\r\n        string memory _options,\r\n        string memory _imgHash,\r\n        uint256 _ans,\r\n        bool _approve,\r\n        bool _isApproved,\r\n        uint8 _d\r\n    ) public {\r\n        problemCount++;\r\n        problems[problemCount] = Problem(\r\n            _subject,\r\n            _topic,\r\n            _question,\r\n            _options,\r\n            _imgHash,\r\n            _ans,\r\n            _approve,\r\n            _isApproved,\r\n            _d\r\n        );\r\n        //Added this\r\n        owner[problemCount] = msg.sender;\r\n        emit SubmitQuestion(\r\n            _subject,\r\n            _topic,\r\n            _question,\r\n            _options,\r\n            _imgHash,\r\n            _ans,\r\n            _approve,\r\n            _isApproved,\r\n            _d\r\n        );\r\n    }\r\n\r\n    function questionAcceptReject(\r\n        uint256 _problemCount,\r\n        string memory _subject,\r\n        string memory _topic,\r\n        string memory _question,\r\n        string memory _options,\r\n        string memory _imgHash,\r\n        uint256 _ans,\r\n        bool _approve,\r\n        bool _isApproved,\r\n        uint8 _d\r\n    ) public {\r\n        if (_approve == true && _isApproved == true) {\r\n            cqt[_topic]++;\r\n        }\r\n        problems[_problemCount] = Problem(\r\n            _subject,\r\n            _topic,\r\n            _question,\r\n            _options,\r\n            _imgHash,\r\n            _ans,\r\n            _approve,\r\n            _isApproved,\r\n            _d\r\n        );\r\n        // owner[uid]=msg.sender;\r\n        emit SubmitQuestion(\r\n            _subject,\r\n            _topic,\r\n            _question,\r\n            _options,\r\n            _imgHash,\r\n            _ans,\r\n            _approve,\r\n            _isApproved,\r\n            _d\r\n        );\r\n    }\r\n\r\n    function getCountOfTopic(string memory _topic)\r\n        public\r\n        view\r\n        returns (uint256)\r\n    {\r\n        uint256 count = cqt[_topic];\r\n        return count;\r\n    }\r\n\r\n    //   function increaseCountOfTopic(string memory _topic) public {\r\n    //     cqt[_topic]++;\r\n    // }\r\n\r\n    // function getAllQuestions() public view returns (Problem[] memory){\r\n    //     // Problem[] memory ret = new Problem[](problems.length);\r\n    //     // for (uint i = 0; i < problems.length; i++) {\r\n    //     //     ret[i] = problems[i];\r\n    //     // }\r\n    //     // return ret;\r\n    //     return problems;\r\n    // }\r\n\r\n    function contribute(uint256 _problemCount) public payable {\r\n        pool[_problemCount] += 1;\r\n        //Next two line is error\r\n        address payable _owner = owner[_problemCount];\r\n        address(_owner).transfer(msg.value);\r\n    }\r\n\r\n    function getOwner(uint256 _id) public view returns (address payable) {\r\n        return owner[_id];\r\n    }\r\n\r\n    function toAsciiString(address x) internal pure returns (string memory) {\r\n        bytes memory s = new bytes(40);\r\n        for (uint256 i = 0; i < 20; i++) {\r\n            bytes1 b = bytes1(uint8(uint256(uint160(x)) / (2**(8 * (19 - i)))));\r\n            bytes1 hi = bytes1(uint8(b) / 16);\r\n            bytes1 lo = bytes1(uint8(b) - 16 * uint8(hi));\r\n            s[2 * i] = char(hi);\r\n            s[2 * i + 1] = char(lo);\r\n        }\r\n        return string(s);\r\n    }\r\n\r\n    function char(bytes1 b) internal pure returns (bytes1 c) {\r\n        if (uint8(b) < 10) return bytes1(uint8(b) + 0x30);\r\n        else return bytes1(uint8(b) + 0x57);\r\n    }\r\n\r\n    function addAContribution(uint256 _id) public {\r\n        contributionCount++;\r\n        contributions[contributionCount] = toAsciiString(owner[_id]);\r\n    }\r\n\r\n    function report(uint256 _id) public {\r\n        reportClicks[_id]++;\r\n        if (reportClicks[_id] > 1) {\r\n            // Problem memory p=problems[_id];\r\n            // p.approve=false;\r\n            // p.isApproved=false;\r\n            // problems[_id]=p;\r\n            problems[_id].approve = false;\r\n            problems[_id].isApproved = false;\r\n        }\r\n    }\r\n}",
  "sourcePath": "C:\\Users\\divij\\crowdquest_sih\\contracts\\CrowdSource.sol",
  "compiler": {
    "name": "solc",
    "version": "0.5.1+commit.c8a2cb62.Emscripten.clang"
  },
  "schemaVersion": "3.4.4",
  "updatedAt": "2022-08-23T18:20:05.424Z",
  "networkType": "ethereum",
  "devdoc": {
    "methods": {}
  },
  "userdoc": {
    "methods": {}
  }
}