{
  "contractName": "CrowdSource",
  "abi": [
    {
      "anonymous": false,
      "inputs": [
        {
          "indexed": false,
          "name": "subject",
          "type": "string"
        },
        {
          "indexed": false,
          "name": "question",
          "type": "string"
        },
        {
          "indexed": false,
          "name": "options",
          "type": "string[]"
        },
        {
          "indexed": false,
          "name": "imgHash",
          "type": "string"
        },
        {
          "indexed": false,
          "name": "ans",
          "type": "uint256"
        },
        {
          "indexed": false,
          "name": "approve",
          "type": "bool"
        }
      ],
      "name": "SubmitQuestion",
      "type": "event"
    },
    {
      "constant": false,
      "inputs": [
        {
          "name": "_subject",
          "type": "string"
        },
        {
          "name": "_question",
          "type": "string"
        },
        {
          "name": "_options",
          "type": "string[]"
        },
        {
          "name": "_imgHash",
          "type": "string"
        },
        {
          "name": "_ans",
          "type": "uint256"
        },
        {
          "name": "_approve",
          "type": "bool"
        }
      ],
      "name": "addToBlockchain",
      "outputs": [],
      "payable": false,
      "stateMutability": "nonpayable",
      "type": "function"
    },
    {
      "constant": true,
      "inputs": [],
      "name": "getAllQuestions",
      "outputs": [
        {
          "components": [
            {
              "name": "subject",
              "type": "string"
            },
            {
              "name": "question",
              "type": "string"
            },
            {
              "name": "options",
              "type": "string[]"
            },
            {
              "name": "imgHash",
              "type": "string"
            },
            {
              "name": "ans",
              "type": "uint256"
            },
            {
              "name": "approve",
              "type": "bool"
            }
          ],
          "name": "",
          "type": "tuple[]"
        }
      ],
      "payable": false,
      "stateMutability": "view",
      "type": "function"
    }
  ],
  "bytecode": "0x608060405234801561001057600080fd5b50610e6c806100206000396000f3fe608060405260043610610046576000357c0100000000000000000000000000000000000000000000000000000000900480632af9338e1461004b578063ce0e3e3f14610076575b600080fd5b34801561005757600080fd5b5061006061009f565b60405161006d9190610be2565b60405180910390f35b34801561008257600080fd5b5061009d60048036036100989190810190610887565b610444565b005b6060806000805490506040519080825280602002602001820160405280156100e157816020015b6100ce61058b565b8152602001906001900390816100c65790505b50905060008090505b60008054905081101561043c5760008181548110151561010657fe5b906000526020600020906006020160c06040519081016040529081600082018054600181600116156101000203166002900480601f0160208091040260200160405190810160405280929190818152602001828054600181600116156101000203166002900480156101b95780601f1061018e576101008083540402835291602001916101b9565b820191906000526020600020905b81548152906001019060200180831161019c57829003601f168201915b50505050508152602001600182018054600181600116156101000203166002900480601f01602080910402602001604051908101604052809291908181526020018280546001816001161561010002031660029004801561025b5780601f106102305761010080835404028352916020019161025b565b820191906000526020600020905b81548152906001019060200180831161023e57829003601f168201915b5050505050815260200160028201805480602002602001604051908101604052809291908181526020016000905b82821015610345578382906000526020600020018054600181600116156101000203166002900480601f0160208091040260200160405190810160405280929190818152602001828054600181600116156101000203166002900480156103315780601f1061030657610100808354040283529160200191610331565b820191906000526020600020905b81548152906001019060200180831161031457829003601f168201915b505050505081526020019060010190610289565b505050508152602001600382018054600181600116156101000203166002900480601f0160208091040260200160405190810160405280929190818152602001828054600181600116156101000203166002900480156103e65780601f106103bb576101008083540402835291602001916103e6565b820191906000526020600020905b8154815290600101906020018083116103c957829003601f168201915b50505050508152602001600482015481526020016005820160009054906101000a900460ff161515151581525050828281518110151561042257fe5b9060200190602002018190525080806001019150506100ea565b508091505090565b600060c0604051908101604052808881526020018781526020018681526020018581526020018481526020018315158152509080600181540180825580915050906001820390600052602060002090600602016000909192909190915060008201518160000190805190602001906104bd9291906105c4565b5060208201518160010190805190602001906104da9291906105c4565b5060408201518160020190805190602001906104f7929190610644565b5060608201518160030190805190602001906105149291906105c4565b506080820151816004015560a08201518160050160006101000a81548160ff0219169083151502179055505050507f1f58d7e126b2d85a9c1294b35b65683675c81f553b7efd66defda6169f46163b86868686868660405161057b96959493929190610c04565b60405180910390a1505050505050565b60c06040519081016040528060608152602001606081526020016060815260200160608152602001600081526020016000151581525090565b828054600181600116156101000203166002900490600052602060002090601f016020900481019282601f1061060557805160ff1916838001178555610633565b82800160010185558215610633579182015b82811115610632578251825591602001919060010190610617565b5b50905061064091906106a4565b5090565b828054828255906000526020600020908101928215610693579160200282015b828111156106925782518290805190602001906106829291906105c4565b5091602001919060010190610664565b5b5090506106a091906106c9565b5090565b6106c691905b808211156106c25760008160009055506001016106aa565b5090565b90565b6106f291905b808211156106ee57600081816106e591906106f5565b506001016106cf565b5090565b90565b50805460018160011615610100020316600290046000825580601f1061071b575061073a565b601f01602090049060005260206000209081019061073991906106a4565b5b50565b600082601f830112151561075057600080fd5b813561076361075e82610cae565b610c81565b9150818183526020840193506020810190508360005b838110156107a9578135860161078f88826107c7565b845260208401935060208301925050600181019050610779565b5050505092915050565b60006107bf8235610dc9565b905092915050565b600082601f83011215156107da57600080fd5b81356107ed6107e882610cd6565b610c81565b9150808252602083016020830185838301111561080957600080fd5b610814838284610ddf565b50505092915050565b600082601f830112151561083057600080fd5b813561084361083e82610d02565b610c81565b9150808252602083016020830185838301111561085f57600080fd5b61086a838284610ddf565b50505092915050565b600061087f8235610dd5565b905092915050565b60008060008060008060c087890312156108a057600080fd5b600087013567ffffffffffffffff8111156108ba57600080fd5b6108c689828a0161081d565b965050602087013567ffffffffffffffff8111156108e357600080fd5b6108ef89828a0161081d565b955050604087013567ffffffffffffffff81111561090c57600080fd5b61091889828a0161073d565b945050606087013567ffffffffffffffff81111561093557600080fd5b61094189828a0161081d565b935050608061095289828a01610873565b92505060a061096389828a016107b3565b9150509295509295509295565b600061097b82610d60565b8084526020840193508360208202850161099485610d3b565b60005b848110156109cd5783830388526109af838351610aff565b92506109ba82610d99565b9150602088019750600181019050610997565b508196508694505050505092915050565b60006109e982610d55565b80845260208401935083602082028501610a0285610d2e565b60005b84811015610a3b578383038852610a1d838351610aff565b9250610a2882610d8c565b9150602088019750600181019050610a05565b508196508694505050505092915050565b6000610a5782610d6b565b80845260208401935083602082028501610a7085610d48565b60005b84811015610aa9578383038852610a8b838351610b35565b9250610a9682610da6565b9150602088019750600181019050610a73565b508196508694505050505092915050565b610ac381610db3565b82525050565b6000610ad482610d81565b808452610ae8816020860160208601610dee565b610af181610e21565b602085010191505092915050565b6000610b0a82610d76565b808452610b1e816020860160208601610dee565b610b2781610e21565b602085010191505092915050565b600060c0830160008301518482036000860152610b528282610aff565b91505060208301518482036020860152610b6c8282610aff565b91505060408301518482036040860152610b8682826109de565b91505060608301518482036060860152610ba08282610aff565b9150506080830151610bb56080860182610bd3565b5060a0830151610bc860a0860182610aba565b508091505092915050565b610bdc81610dbf565b82525050565b60006020820190508181036000830152610bfc8184610a4c565b905092915050565b600060c0820190508181036000830152610c1e8189610ac9565b90508181036020830152610c328188610ac9565b90508181036040830152610c468187610970565b90508181036060830152610c5a8186610ac9565b9050610c696080830185610bd3565b610c7660a0830184610aba565b979650505050505050565b6000604051905081810181811067ffffffffffffffff82111715610ca457600080fd5b8060405250919050565b600067ffffffffffffffff821115610cc557600080fd5b602082029050602081019050919050565b600067ffffffffffffffff821115610ced57600080fd5b601f19601f8301169050602081019050919050565b600067ffffffffffffffff821115610d1957600080fd5b601f19601f8301169050602081019050919050565b6000602082019050919050565b6000602082019050919050565b6000602082019050919050565b600081519050919050565b600081519050919050565b600081519050919050565b600081519050919050565b600081519050919050565b6000602082019050919050565b6000602082019050919050565b6000602082019050919050565b60008115159050919050565b6000819050919050565b60008115159050919050565b6000819050919050565b82818337600083830152505050565b60005b83811015610e0c578082015181840152602081019050610df1565b83811115610e1b576000848401525b50505050565b6000601f19601f830116905091905056fea265627a7a72305820f2fa64a597cd587f7266499731d084328c22c35f9a5c65469938dbd9686a84056c6578706572696d656e74616cf50037",
  "source": "// SPDX-License-Identifier: MIT\r\npragma experimental ABIEncoderV2;\r\npragma solidity ^0.5.1;\r\n\r\ncontract CrowdSource {\r\n   \r\n    event SubmitQuestion(\r\n        string subject,\r\n        string question,\r\n        string[] options,\r\n        string imgHash,\r\n        uint256 ans,\r\n        bool approve\r\n    );\r\n\r\n    struct Problem {\r\n        string subject;\r\n        string question;\r\n        string[] options;\r\n        string imgHash;\r\n        uint256 ans;\r\n        bool approve;\r\n    }\r\n\r\n    Problem[] problems;\r\n\r\n    function addToBlockchain(\r\n        string memory _subject,\r\n        string memory _question,\r\n        string[] memory _options,\r\n        string memory _imgHash,\r\n        uint256 _ans,\r\n        bool _approve\r\n    ) public {\r\n        problems.push(Problem(_subject, _question, _options,_imgHash, _ans, _approve));\r\n\r\n        emit SubmitQuestion(_subject, _question, _options,_imgHash, _ans, _approve);\r\n    }\r\n\r\n    function getAllQuestions() public view returns (Problem[] memory){\r\n        Problem[] memory ret = new Problem[](problems.length);\r\n        for (uint i = 0; i < problems.length; i++) {\r\n            ret[i] = problems[i];\r\n        }\r\n        return ret;\r\n    }\r\n}\r\n",
  "sourcePath": "C:\\Users\\divij\\crowdquest_sih\\contracts\\CrowdSource.sol",
  "compiler": {
    "name": "solc",
    "version": "0.5.1+commit.c8a2cb62.Emscripten.clang"
  },
  "schemaVersion": "3.4.4",
  "updatedAt": "2022-07-24T16:29:38.972Z",
  "networkType": "ethereum",
  "devdoc": {
    "methods": {}
  },
  "userdoc": {
    "methods": {}
  }
}