{
  "contractName": "CrowdSource",
  "abi": [
    {
      "constant": true,
      "inputs": [
        {
          "name": "",
          "type": "uint256"
        }
      ],
      "name": "contributions",
      "outputs": [
        {
          "name": "",
          "type": "string"
        }
      ],
      "payable": false,
      "stateMutability": "view",
      "type": "function"
    },
    {
      "constant": true,
      "inputs": [],
      "name": "contributionCount",
      "outputs": [
        {
          "name": "",
          "type": "uint256"
        }
      ],
      "payable": false,
      "stateMutability": "view",
      "type": "function"
    },
    {
      "constant": true,
      "inputs": [],
      "name": "problemCount",
      "outputs": [
        {
          "name": "",
          "type": "uint256"
        }
      ],
      "payable": false,
      "stateMutability": "view",
      "type": "function"
    },
    {
      "constant": true,
      "inputs": [
        {
          "name": "",
          "type": "uint256"
        }
      ],
      "name": "owner",
      "outputs": [
        {
          "name": "",
          "type": "address"
        }
      ],
      "payable": false,
      "stateMutability": "view",
      "type": "function"
    },
    {
      "constant": true,
      "inputs": [
        {
          "name": "",
          "type": "uint256"
        }
      ],
      "name": "reportClicks",
      "outputs": [
        {
          "name": "",
          "type": "uint256"
        }
      ],
      "payable": false,
      "stateMutability": "view",
      "type": "function"
    },
    {
      "constant": true,
      "inputs": [
        {
          "name": "",
          "type": "uint256"
        }
      ],
      "name": "problems",
      "outputs": [
        {
          "name": "subject",
          "type": "string"
        },
        {
          "name": "topic",
          "type": "string"
        },
        {
          "name": "question",
          "type": "string"
        },
        {
          "name": "options",
          "type": "string"
        },
        {
          "name": "imgHash",
          "type": "string"
        },
        {
          "name": "ans",
          "type": "uint256"
        },
        {
          "name": "approve",
          "type": "bool"
        },
        {
          "name": "isApproved",
          "type": "bool"
        },
        {
          "name": "d",
          "type": "uint8"
        },
        {
          "name": "owner",
          "type": "address"
        }
      ],
      "payable": false,
      "stateMutability": "view",
      "type": "function"
    },
    {
      "constant": true,
      "inputs": [
        {
          "name": "",
          "type": "uint256"
        }
      ],
      "name": "pool",
      "outputs": [
        {
          "name": "",
          "type": "uint256"
        }
      ],
      "payable": false,
      "stateMutability": "view",
      "type": "function"
    },
    {
      "anonymous": false,
      "inputs": [
        {
          "indexed": false,
          "name": "subject",
          "type": "string"
        },
        {
          "indexed": false,
          "name": "topic",
          "type": "string"
        },
        {
          "indexed": false,
          "name": "question",
          "type": "string"
        },
        {
          "indexed": false,
          "name": "options",
          "type": "string"
        },
        {
          "indexed": false,
          "name": "imgHash",
          "type": "string"
        },
        {
          "indexed": false,
          "name": "ans",
          "type": "uint256"
        },
        {
          "indexed": false,
          "name": "approve",
          "type": "bool"
        },
        {
          "indexed": false,
          "name": "isApproved",
          "type": "bool"
        },
        {
          "indexed": false,
          "name": "d",
          "type": "uint8"
        },
        {
          "indexed": false,
          "name": "owner",
          "type": "address"
        }
      ],
      "name": "SubmitQuestion",
      "type": "event"
    },
    {
      "constant": false,
      "inputs": [
        {
          "name": "_subject",
          "type": "string"
        },
        {
          "name": "_topic",
          "type": "string"
        },
        {
          "name": "_question",
          "type": "string"
        },
        {
          "name": "_options",
          "type": "string"
        },
        {
          "name": "_imgHash",
          "type": "string"
        },
        {
          "name": "_ans",
          "type": "uint256"
        },
        {
          "name": "_approve",
          "type": "bool"
        },
        {
          "name": "_isApproved",
          "type": "bool"
        },
        {
          "name": "_d",
          "type": "uint8"
        }
      ],
      "name": "addToBlockchain",
      "outputs": [],
      "payable": false,
      "stateMutability": "nonpayable",
      "type": "function"
    },
    {
      "constant": false,
      "inputs": [
        {
          "name": "_problemCount",
          "type": "uint256"
        },
        {
          "name": "_subject",
          "type": "string"
        },
        {
          "name": "_topic",
          "type": "string"
        },
        {
          "name": "_question",
          "type": "string"
        },
        {
          "name": "_options",
          "type": "string"
        },
        {
          "name": "_imgHash",
          "type": "string"
        },
        {
          "name": "_ans",
          "type": "uint256"
        },
        {
          "name": "_approve",
          "type": "bool"
        },
        {
          "name": "_isApproved",
          "type": "bool"
        },
        {
          "name": "_d",
          "type": "uint8"
        }
      ],
      "name": "questionAcceptReject",
      "outputs": [],
      "payable": false,
      "stateMutability": "nonpayable",
      "type": "function"
    },
    {
      "constant": true,
      "inputs": [
        {
          "name": "_topic",
          "type": "string"
        }
      ],
      "name": "getCountOfTopic",
      "outputs": [
        {
          "name": "",
          "type": "uint256"
        }
      ],
      "payable": false,
      "stateMutability": "view",
      "type": "function"
    },
    {
      "constant": false,
      "inputs": [
        {
          "name": "_problemCount",
          "type": "uint256"
        }
      ],
      "name": "contribute",
      "outputs": [],
      "payable": true,
      "stateMutability": "payable",
      "type": "function"
    },
    {
      "constant": true,
      "inputs": [
        {
          "name": "_id",
          "type": "uint256"
        }
      ],
      "name": "getOwner",
      "outputs": [
        {
          "name": "",
          "type": "address"
        }
      ],
      "payable": false,
      "stateMutability": "view",
      "type": "function"
    },
    {
      "constant": false,
      "inputs": [
        {
          "name": "_id",
          "type": "uint256"
        }
      ],
      "name": "addAContribution",
      "outputs": [],
      "payable": false,
      "stateMutability": "nonpayable",
      "type": "function"
    },
    {
      "constant": false,
      "inputs": [
        {
          "name": "_id",
          "type": "uint256"
        }
      ],
      "name": "report",
      "outputs": [],
      "payable": false,
      "stateMutability": "nonpayable",
      "type": "function"
    }
  ],
  "bytecode": "0x608060405234801561001057600080fd5b50611bd9806100206000396000f3fe6080604052600436106100ca576000357c0100000000000000000000000000000000000000000000000000000000900480631cee0700146100cf5780633e4ec1cd1461010c5780635b18056b14610149578063734ca3f5146101745780638c6931431461019d5780639115e71b146101c6578063969b1cdb146101f1578063a06dd7861461021a578063a123c33e14610243578063c1cbbca714610280578063c41a360a1461029c578063de9a3450146102d9578063eba4f36614610316578063fe3131121461035c575b600080fd5b3480156100db57600080fd5b506100f660048036036100f19190810190611605565b610399565b6040516101039190611862565b60405180910390f35b34801561011857600080fd5b50610133600480360361012e9190810190611486565b610449565b6040516101409190611a02565b60405180910390f35b34801561015557600080fd5b5061015e6104c3565b60405161016b9190611a02565b60405180910390f35b34801561018057600080fd5b5061019b60048036036101969190810190611605565b6104c9565b005b3480156101a957600080fd5b506101c460048036036101bf919081019061162e565b610543565b005b3480156101d257600080fd5b506101db6107f0565b6040516101e89190611a02565b60405180910390f35b3480156101fd57600080fd5b5061021860048036036102139190810190611605565b6107f6565b005b34801561022657600080fd5b50610241600480360361023c91908101906114c7565b610897565b005b34801561024f57600080fd5b5061026a60048036036102659190810190611605565b610b0f565b6040516102779190611847565b60405180910390f35b61029a60048036036102959190810190611605565b610b42565b005b3480156102a857600080fd5b506102c360048036036102be9190810190611605565b610be7565b6040516102d09190611847565b60405180910390f35b3480156102e557600080fd5b5061030060048036036102fb9190810190611605565b610c24565b60405161030d9190611a02565b60405180910390f35b34801561032257600080fd5b5061033d60048036036103389190810190611605565b610c3c565b6040516103539a99989796959493929190611943565b60405180910390f35b34801561036857600080fd5b50610383600480360361037e9190810190611605565b610fcf565b6040516103909190611a02565b60405180910390f35b60066020528060005260406000206000915090508054600181600116156101000203166002900480601f0160208091040260200160405190810160405280929190818152602001828054600181600116156101000203166002900480156104415780601f1061041657610100808354040283529160200191610441565b820191906000526020600020905b81548152906001019060200180831161042457829003601f168201915b505050505081565b6000806003836040518082805190602001908083835b602083101515610484578051825260208201915060208101905060208303925061045f565b6001836020036101000a038019825116818451168082178552505050505050905001915050908152602001604051809103902054905080915050919050565b60015481565b6001600081548092919060010191905055506105176004600083815260200190815260200160002060009054906101000a900473ffffffffffffffffffffffffffffffffffffffff16610fe7565b600660006001548152602001908152602001600020908051906020019061053f9291906112cf565b5050565b6001151583151514801561055b575060011515821515145b156105dc576003886040518082805190602001908083835b6020831015156105985780518252602082019150602081019050602083039250610573565b6001836020036101000a0380198251168184511680821785525050505050509050019150509081526020016040518091039020600081548092919060010191905055505b610140604051908101604052808a8152602001898152602001888152602001878152602001868152602001858152602001841515815260200183151581526020018260ff1681526020013373ffffffffffffffffffffffffffffffffffffffff16815250600260008c8152602001908152602001600020600082015181600001908051906020019061066f92919061134f565b50602082015181600101908051906020019061068c92919061134f565b5060408201518160020190805190602001906106a992919061134f565b5060608201518160030190805190602001906106c692919061134f565b5060808201518160040190805190602001906106e392919061134f565b5060a0820151816005015560c08201518160060160006101000a81548160ff02191690831515021790555060e08201518160060160016101000a81548160ff0219169083151502179055506101008201518160060160026101000a81548160ff021916908360ff1602179055506101208201518160060160036101000a81548173ffffffffffffffffffffffffffffffffffffffff021916908373ffffffffffffffffffffffffffffffffffffffff1602179055509050507f9de6f9b447bd00b04f81c0faca9faf329979fd768d124c28a4b45e6394019907898989898989898989336040516107dc9a99989796959493929190611884565b60405180910390a150505050505050505050565b60005481565b60076000828152602001908152602001600020600081548092919060010191905055506001600760008381526020019081526020016000205411156108945760006002600083815260200190815260200160002060060160006101000a81548160ff02191690831515021790555060006002600083815260200190815260200160002060060160016101000a81548160ff0219169083151502179055505b50565b6000808154809291906001019190505550610140604051908101604052808a8152602001898152602001888152602001878152602001868152602001858152602001841515815260200183151581526020018260ff1681526020013373ffffffffffffffffffffffffffffffffffffffff168152506002600080548152602001908152602001600020600082015181600001908051906020019061093c92919061134f565b50602082015181600101908051906020019061095992919061134f565b50604082015181600201908051906020019061097692919061134f565b50606082015181600301908051906020019061099392919061134f565b5060808201518160040190805190602001906109b092919061134f565b5060a0820151816005015560c08201518160060160006101000a81548160ff02191690831515021790555060e08201518160060160016101000a81548160ff0219169083151502179055506101008201518160060160026101000a81548160ff021916908360ff1602179055506101208201518160060160036101000a81548173ffffffffffffffffffffffffffffffffffffffff021916908373ffffffffffffffffffffffffffffffffffffffff16021790555090505033600460008054815260200190815260200160002060006101000a81548173ffffffffffffffffffffffffffffffffffffffff021916908373ffffffffffffffffffffffffffffffffffffffff1602179055507f9de6f9b447bd00b04f81c0faca9faf329979fd768d124c28a4b45e639401990789898989898989898933604051610afc9a99989796959493929190611884565b60405180910390a1505050505050505050565b60046020528060005260406000206000915054906101000a900473ffffffffffffffffffffffffffffffffffffffff1681565b6001600560008381526020019081526020016000206000828254019250508190555060006004600083815260200190815260200160002060009054906101000a900473ffffffffffffffffffffffffffffffffffffffff1690508073ffffffffffffffffffffffffffffffffffffffff166108fc349081150290604051600060405180830381858888f19350505050158015610be2573d6000803e3d6000fd5b505050565b60006004600083815260200190815260200160002060009054906101000a900473ffffffffffffffffffffffffffffffffffffffff169050919050565b60076020528060005260406000206000915090505481565b6002602052806000526040600020600091509050806000018054600181600116156101000203166002900480601f016020809104026020016040519081016040528092919081815260200182805460018160011615610100020316600290048015610ce85780601f10610cbd57610100808354040283529160200191610ce8565b820191906000526020600020905b815481529060010190602001808311610ccb57829003601f168201915b505050505090806001018054600181600116156101000203166002900480601f016020809104026020016040519081016040528092919081815260200182805460018160011615610100020316600290048015610d865780601f10610d5b57610100808354040283529160200191610d86565b820191906000526020600020905b815481529060010190602001808311610d6957829003601f168201915b505050505090806002018054600181600116156101000203166002900480601f016020809104026020016040519081016040528092919081815260200182805460018160011615610100020316600290048015610e245780601f10610df957610100808354040283529160200191610e24565b820191906000526020600020905b815481529060010190602001808311610e0757829003601f168201915b505050505090806003018054600181600116156101000203166002900480601f016020809104026020016040519081016040528092919081815260200182805460018160011615610100020316600290048015610ec25780601f10610e9757610100808354040283529160200191610ec2565b820191906000526020600020905b815481529060010190602001808311610ea557829003601f168201915b505050505090806004018054600181600116156101000203166002900480601f016020809104026020016040519081016040528092919081815260200182805460018160011615610100020316600290048015610f605780601f10610f3557610100808354040283529160200191610f60565b820191906000526020600020905b815481529060010190602001808311610f4357829003601f168201915b5050505050908060050154908060060160009054906101000a900460ff16908060060160019054906101000a900460ff16908060060160029054906101000a900460ff16908060060160039054906101000a900473ffffffffffffffffffffffffffffffffffffffff1690508a565b60056020528060005260406000206000915090505481565b60608060286040519080825280601f01601f19166020018201604052801561101e5781602001600182028038833980820191505090505b50905060008090505b60148110156111f35760008160130360080260020a8573ffffffffffffffffffffffffffffffffffffffff1681151561105c57fe5b047f010000000000000000000000000000000000000000000000000000000000000002905060006010827f0100000000000000000000000000000000000000000000000000000000000000900460ff168115156110b557fe5b047f01000000000000000000000000000000000000000000000000000000000000000290506000817f01000000000000000000000000000000000000000000000000000000000000009004601002837f01000000000000000000000000000000000000000000000000000000000000009004037f0100000000000000000000000000000000000000000000000000000000000000029050611155826111fd565b858560020281518110151561116657fe5b9060200101907effffffffffffffffffffffffffffffffffffffffffffffffffffffffffffff1916908160001a90535061119f816111fd565b85600186600202018151811015156111b357fe5b9060200101907effffffffffffffffffffffffffffffffffffffffffffffffffffffffffffff1916908160001a9053505050508080600101915050611027565b5080915050919050565b6000600a827f0100000000000000000000000000000000000000000000000000000000000000900460ff16101561127e576030827f01000000000000000000000000000000000000000000000000000000000000009004017f01000000000000000000000000000000000000000000000000000000000000000290506112ca565b6057827f01000000000000000000000000000000000000000000000000000000000000009004017f01000000000000000000000000000000000000000000000000000000000000000290505b919050565b828054600181600116156101000203166002900490600052602060002090601f016020900481019282601f1061131057805160ff191683800117855561133e565b8280016001018555821561133e579182015b8281111561133d578251825591602001919060010190611322565b5b50905061134b91906113cf565b5090565b828054600181600116156101000203166002900490600052602060002090601f016020900481019282601f1061139057805160ff19168380011785556113be565b828001600101855582156113be579182015b828111156113bd5782518255916020019190600101906113a2565b5b5090506113cb91906113cf565b5090565b6113f191905b808211156113ed5760008160009055506001016113d5565b5090565b90565b60006114008235611af3565b905092915050565b600082601f830112151561141b57600080fd5b813561142e61142982611a4a565b611a1d565b9150808252602083016020830185838301111561144a57600080fd5b611455838284611b4c565b50505092915050565b600061146a8235611aff565b905092915050565b600061147e8235611b09565b905092915050565b60006020828403121561149857600080fd5b600082013567ffffffffffffffff8111156114b257600080fd5b6114be84828501611408565b91505092915050565b60008060008060008060008060006101208a8c0312156114e657600080fd5b60008a013567ffffffffffffffff81111561150057600080fd5b61150c8c828d01611408565b99505060208a013567ffffffffffffffff81111561152957600080fd5b6115358c828d01611408565b98505060408a013567ffffffffffffffff81111561155257600080fd5b61155e8c828d01611408565b97505060608a013567ffffffffffffffff81111561157b57600080fd5b6115878c828d01611408565b96505060808a013567ffffffffffffffff8111156115a457600080fd5b6115b08c828d01611408565b95505060a06115c18c828d0161145e565b94505060c06115d28c828d016113f4565b93505060e06115e38c828d016113f4565b9250506101006115f58c828d01611472565b9150509295985092959850929598565b60006020828403121561161757600080fd5b60006116258482850161145e565b91505092915050565b6000806000806000806000806000806101408b8d03121561164e57600080fd5b600061165c8d828e0161145e565b9a505060208b013567ffffffffffffffff81111561167957600080fd5b6116858d828e01611408565b99505060408b013567ffffffffffffffff8111156116a257600080fd5b6116ae8d828e01611408565b98505060608b013567ffffffffffffffff8111156116cb57600080fd5b6116d78d828e01611408565b97505060808b013567ffffffffffffffff8111156116f457600080fd5b6117008d828e01611408565b96505060a08b013567ffffffffffffffff81111561171d57600080fd5b6117298d828e01611408565b95505060c061173a8d828e0161145e565b94505060e061174b8d828e016113f4565b93505061010061175d8d828e016113f4565b92505061012061176f8d828e01611472565b9150509295989b9194979a5092959850565b61178a81611b16565b82525050565b61179981611a9e565b82525050565b6117a881611a8c565b82525050565b6117b781611ab0565b82525050565b60006117c882611a81565b8084526117dc816020860160208601611b5b565b6117e581611b8e565b602085010191505092915050565b60006117fe82611a76565b808452611812816020860160208601611b5b565b61181b81611b8e565b602085010191505092915050565b61183281611adc565b82525050565b61184181611ae6565b82525050565b600060208201905061185c6000830184611790565b92915050565b6000602082019050818103600083015261187c81846117f3565b905092915050565b600061014082019050818103600083015261189f818d6117bd565b905081810360208301526118b3818c6117bd565b905081810360408301526118c7818b6117bd565b905081810360608301526118db818a6117bd565b905081810360808301526118ef81896117bd565b90506118fe60a0830188611829565b61190b60c08301876117ae565b61191860e08301866117ae565b611926610100830185611838565b611934610120830184611781565b9b9a5050505050505050505050565b600061014082019050818103600083015261195e818d6117f3565b90508181036020830152611972818c6117f3565b90508181036040830152611986818b6117f3565b9050818103606083015261199a818a6117f3565b905081810360808301526119ae81896117f3565b90506119bd60a0830188611829565b6119ca60c08301876117ae565b6119d760e08301866117ae565b6119e5610100830185611838565b6119f361012083018461179f565b9b9a5050505050505050505050565b6000602082019050611a176000830184611829565b92915050565b6000604051905081810181811067ffffffffffffffff82111715611a4057600080fd5b8060405250919050565b600067ffffffffffffffff821115611a6157600080fd5b601f19601f8301169050602081019050919050565b600081519050919050565b600081519050919050565b6000611a9782611abc565b9050919050565b6000611aa982611abc565b9050919050565b60008115159050919050565b600073ffffffffffffffffffffffffffffffffffffffff82169050919050565b6000819050919050565b600060ff82169050919050565b60008115159050919050565b6000819050919050565b600060ff82169050919050565b6000611b2182611b28565b9050919050565b6000611b3382611b3a565b9050919050565b6000611b4582611abc565b9050919050565b82818337600083830152505050565b60005b83811015611b79578082015181840152602081019050611b5e565b83811115611b88576000848401525b50505050565b6000601f19601f830116905091905056fea265627a7a723058202578f19e109cf003de680e9a0e53f520cc95471a89c0896c8945060035f216116c6578706572696d656e74616cf50037",
  "source": "// SPDX-License-Identifier: MIT\r\npragma experimental ABIEncoderV2;\r\npragma solidity ^0.5.1;\r\n\r\ncontract CrowdSource {\r\n    // Problem[] problems;\r\n    uint256 public problemCount;\r\n    uint256 public contributionCount;\r\n\r\n    mapping(uint256 => Problem) public problems;\r\n\r\n    // CQT - Count of Questions per Topic\r\n    mapping(string => uint256) cqt;\r\n\r\n    //uint is id\r\n    mapping(uint256 => address payable) public owner;\r\n    // id => amount\r\n    mapping(uint256 => uint256) public pool;\r\n\r\n    mapping(uint256 => string) public contributions;\r\n\r\n    //report count id(uint)=>uint(count)\r\n    mapping(uint256 => uint256) public reportClicks;\r\n\r\n\r\n    event SubmitQuestion(\r\n        string subject,\r\n        string topic,\r\n        string question,\r\n        string options,\r\n        string imgHash,\r\n        uint256 ans,\r\n        bool approve,\r\n        bool isApproved,\r\n        uint8 d,\r\n        address owner\r\n    );\r\n\r\n    struct Problem {\r\n        string subject;\r\n        string topic;\r\n        string question;\r\n        string options;\r\n        string imgHash;\r\n        uint256 ans;\r\n        bool approve;\r\n        bool isApproved;\r\n        uint8 d;\r\n        address owner;\r\n    }\r\n\r\n    function toAsciiString(address x) pure internal returns (string memory) {\r\n        bytes memory s = new bytes(40);\r\n        for (uint256 i = 0; i < 20; i++) {\r\n            bytes1 b = bytes1(uint8(uint256(uint160(x)) / (2**(8 * (19 - i)))));\r\n            bytes1 hi = bytes1(uint8(b) / 16);\r\n            bytes1 lo = bytes1(uint8(b) - 16 * uint8(hi));\r\n            s[2 * i] = char(hi);\r\n            s[2 * i + 1] = char(lo);\r\n        }\r\n        return string(s);\r\n    }\r\n\r\n    function addToBlockchain(\r\n        string memory _subject,\r\n        string memory _topic,\r\n        string memory _question,\r\n        string memory _options,\r\n        string memory _imgHash,\r\n        uint256 _ans,\r\n        bool _approve,\r\n        bool _isApproved,\r\n        uint8 _d\r\n    ) public {\r\n        problemCount++;\r\n        problems[problemCount] = Problem(\r\n            _subject,\r\n            _topic,\r\n            _question,\r\n            _options,\r\n            _imgHash,\r\n            _ans,\r\n            _approve,\r\n            _isApproved,\r\n            _d,\r\n            msg.sender\r\n        );\r\n        //Added this\r\n        owner[problemCount] = msg.sender;\r\n        emit SubmitQuestion(\r\n            _subject,\r\n            _topic,\r\n            _question,\r\n            _options,\r\n            _imgHash,\r\n            _ans,\r\n            _approve,\r\n            _isApproved,\r\n            _d,\r\n            msg.sender\r\n        );\r\n    }\r\n\r\n    function questionAcceptReject(\r\n        uint256 _problemCount,\r\n        string memory _subject,\r\n        string memory _topic,\r\n        string memory _question,\r\n        string memory _options,\r\n        string memory _imgHash,\r\n        uint256 _ans,\r\n        bool _approve,\r\n        bool _isApproved,\r\n        uint8 _d\r\n    ) public {\r\n        if (_approve == true && _isApproved == true) {\r\n            cqt[_topic]++;\r\n        }\r\n        problems[_problemCount] = Problem(\r\n            _subject,\r\n            _topic,\r\n            _question,\r\n            _options,\r\n            _imgHash,\r\n            _ans,\r\n            _approve,\r\n            _isApproved,\r\n            _d,\r\n            msg.sender\r\n        );\r\n        // owner[uid]=msg.sender;\r\n        emit SubmitQuestion(\r\n            _subject,\r\n            _topic,\r\n            _question,\r\n            _options,\r\n            _imgHash,\r\n            _ans,\r\n            _approve,\r\n            _isApproved,\r\n            _d,\r\n            msg.sender\r\n        );\r\n    }\r\n\r\n    function getCountOfTopic(string memory _topic)\r\n        public\r\n        view\r\n        returns (uint256)\r\n    {\r\n        uint256 count = cqt[_topic];\r\n        return count;\r\n    }\r\n\r\n    //   function increaseCountOfTopic(string memory _topic) public {\r\n    //     cqt[_topic]++;\r\n    // }\r\n\r\n    // function getAllQuestions() public view returns (Problem[] memory){\r\n    //     // Problem[] memory ret = new Problem[](problems.length);\r\n    //     // for (uint i = 0; i < problems.length; i++) {\r\n    //     //     ret[i] = problems[i];\r\n    //     // }\r\n    //     // return ret;\r\n    //     return problems;\r\n    // }\r\n\r\n    function contribute(uint256 _problemCount) public payable {\r\n        pool[_problemCount] += 1;\r\n        //Next two line is error\r\n        address payable _owner = owner[_problemCount];\r\n        address(_owner).transfer(msg.value);\r\n    }\r\n\r\n    function getOwner(uint256 _id) public view returns (address payable) {\r\n        return owner[_id];\r\n    }\r\n\r\n\r\n    function char(bytes1 b) internal pure returns (bytes1 c) {\r\n        if (uint8(b) < 10) return bytes1(uint8(b) + 0x30);\r\n        else return bytes1(uint8(b) + 0x57);\r\n    }\r\n\r\n    function addAContribution(uint256 _id) public {\r\n        contributionCount++;\r\n        contributions[contributionCount] = toAsciiString(owner[_id]);\r\n    }\r\n\r\n    function report(uint256 _id) public {\r\n        reportClicks[_id]++;\r\n        if (reportClicks[_id] > 1) {\r\n            // Problem memory p=problems[_id];\r\n            // p.approve=false;\r\n            // p.isApproved=false;\r\n            // problems[_id]=p;\r\n            problems[_id].approve = false;\r\n            problems[_id].isApproved = false;\r\n        }\r\n    }\r\n}",
  "sourcePath": "C:\\Users\\divij\\crowdquest_sih\\contracts\\CrowdSource.sol",
  "compiler": {
    "name": "solc",
    "version": "0.5.1+commit.c8a2cb62.Emscripten.clang"
  },
  "schemaVersion": "3.4.4",
  "updatedAt": "2023-03-18T06:21:48.450Z",
  "networkType": "ethereum",
  "devdoc": {
    "methods": {}
  },
  "userdoc": {
    "methods": {}
  }
}