{
  "contractName": "CrowdSource",
  "abi": [
    {
      "constant": true,
      "inputs": [
        {
          "name": "",
          "type": "uint256"
        }
      ],
      "name": "contributions",
      "outputs": [
        {
          "name": "",
          "type": "string"
        }
      ],
      "payable": false,
      "stateMutability": "view",
      "type": "function"
    },
    {
      "constant": true,
      "inputs": [],
      "name": "contributionCount",
      "outputs": [
        {
          "name": "",
          "type": "uint256"
        }
      ],
      "payable": false,
      "stateMutability": "view",
      "type": "function"
    },
    {
      "constant": true,
      "inputs": [],
      "name": "problemCount",
      "outputs": [
        {
          "name": "",
          "type": "uint256"
        }
      ],
      "payable": false,
      "stateMutability": "view",
      "type": "function"
    },
    {
      "constant": true,
      "inputs": [
        {
          "name": "",
          "type": "uint256"
        }
      ],
      "name": "owner",
      "outputs": [
        {
          "name": "",
          "type": "address"
        }
      ],
      "payable": false,
      "stateMutability": "view",
      "type": "function"
    },
    {
      "constant": true,
      "inputs": [
        {
          "name": "",
          "type": "uint256"
        }
      ],
      "name": "reportClicks",
      "outputs": [
        {
          "name": "",
          "type": "uint256"
        }
      ],
      "payable": false,
      "stateMutability": "view",
      "type": "function"
    },
    {
      "constant": true,
      "inputs": [
        {
          "name": "",
          "type": "uint256"
        }
      ],
      "name": "problems",
      "outputs": [
        {
          "name": "subject",
          "type": "string"
        },
        {
          "name": "topic",
          "type": "string"
        },
        {
          "name": "question",
          "type": "string"
        },
        {
          "name": "options",
          "type": "string"
        },
        {
          "name": "imgHash",
          "type": "string"
        },
        {
          "name": "ans",
          "type": "uint256"
        },
        {
          "name": "approve",
          "type": "bool"
        },
        {
          "name": "isApproved",
          "type": "bool"
        }
      ],
      "payable": false,
      "stateMutability": "view",
      "type": "function"
    },
    {
      "constant": true,
      "inputs": [
        {
          "name": "",
          "type": "uint256"
        }
      ],
      "name": "pool",
      "outputs": [
        {
          "name": "",
          "type": "uint256"
        }
      ],
      "payable": false,
      "stateMutability": "view",
      "type": "function"
    },
    {
      "anonymous": false,
      "inputs": [
        {
          "indexed": false,
          "name": "subject",
          "type": "string"
        },
        {
          "indexed": false,
          "name": "topic",
          "type": "string"
        },
        {
          "indexed": false,
          "name": "question",
          "type": "string"
        },
        {
          "indexed": false,
          "name": "options",
          "type": "string"
        },
        {
          "indexed": false,
          "name": "imgHash",
          "type": "string"
        },
        {
          "indexed": false,
          "name": "ans",
          "type": "uint256"
        },
        {
          "indexed": false,
          "name": "approve",
          "type": "bool"
        },
        {
          "indexed": false,
          "name": "isApproved",
          "type": "bool"
        }
      ],
      "name": "SubmitQuestion",
      "type": "event"
    },
    {
      "constant": false,
      "inputs": [
        {
          "name": "_subject",
          "type": "string"
        },
        {
          "name": "_topic",
          "type": "string"
        },
        {
          "name": "_question",
          "type": "string"
        },
        {
          "name": "_options",
          "type": "string"
        },
        {
          "name": "_imgHash",
          "type": "string"
        },
        {
          "name": "_ans",
          "type": "uint256"
        },
        {
          "name": "_approve",
          "type": "bool"
        },
        {
          "name": "_isApproved",
          "type": "bool"
        }
      ],
      "name": "addToBlockchain",
      "outputs": [],
      "payable": false,
      "stateMutability": "nonpayable",
      "type": "function"
    },
    {
      "constant": false,
      "inputs": [
        {
          "name": "_problemCount",
          "type": "uint256"
        },
        {
          "name": "_subject",
          "type": "string"
        },
        {
          "name": "_topic",
          "type": "string"
        },
        {
          "name": "_question",
          "type": "string"
        },
        {
          "name": "_options",
          "type": "string"
        },
        {
          "name": "_imgHash",
          "type": "string"
        },
        {
          "name": "_ans",
          "type": "uint256"
        },
        {
          "name": "_approve",
          "type": "bool"
        },
        {
          "name": "_isApproved",
          "type": "bool"
        }
      ],
      "name": "questionAcceptReject",
      "outputs": [],
      "payable": false,
      "stateMutability": "nonpayable",
      "type": "function"
    },
    {
      "constant": true,
      "inputs": [
        {
          "name": "_topic",
          "type": "string"
        }
      ],
      "name": "getCountOfTopic",
      "outputs": [
        {
          "name": "",
          "type": "uint256"
        }
      ],
      "payable": false,
      "stateMutability": "view",
      "type": "function"
    },
    {
      "constant": false,
      "inputs": [
        {
          "name": "_problemCount",
          "type": "uint256"
        }
      ],
      "name": "contribute",
      "outputs": [],
      "payable": true,
      "stateMutability": "payable",
      "type": "function"
    },
    {
      "constant": true,
      "inputs": [
        {
          "name": "_id",
          "type": "uint256"
        }
      ],
      "name": "getOwner",
      "outputs": [
        {
          "name": "",
          "type": "address"
        }
      ],
      "payable": false,
      "stateMutability": "view",
      "type": "function"
    },
    {
      "constant": false,
      "inputs": [
        {
          "name": "_id",
          "type": "uint256"
        }
      ],
      "name": "addAContribution",
      "outputs": [],
      "payable": false,
      "stateMutability": "nonpayable",
      "type": "function"
    },
    {
      "constant": false,
      "inputs": [
        {
          "name": "_id",
          "type": "uint256"
        }
      ],
      "name": "report",
      "outputs": [],
      "payable": false,
      "stateMutability": "nonpayable",
      "type": "function"
    }
  ],
  "bytecode": "0x608060405234801561001057600080fd5b5061196e806100206000396000f3fe6080604052600436106100ca576000357c0100000000000000000000000000000000000000000000000000000000900480631cee0700146100cf5780633e4ec1cd1461010c5780635b18056b14610149578063734ca3f5146101745780639115e71b1461019d578063969b1cdb146101c8578063a123c33e146101f1578063b25cf98d1461022e578063c1cbbca714610257578063c41a360a14610273578063de9a3450146102b0578063eba4f366146102ed578063f8e7356714610331578063fe3131121461035a575b600080fd5b3480156100db57600080fd5b506100f660048036036100f1919081019061147a565b610397565b6040516101039190611695565b60405180910390f35b34801561011857600080fd5b50610133600480360361012e919081019061130f565b610447565b60405161014091906117f9565b60405180910390f35b34801561015557600080fd5b5061015e6104c1565b60405161016b91906117f9565b60405180910390f35b34801561018057600080fd5b5061019b6004803603610196919081019061147a565b6104c7565b005b3480156101a957600080fd5b506101b2610541565b6040516101bf91906117f9565b60405180910390f35b3480156101d457600080fd5b506101ef60048036036101ea919081019061147a565b610547565b005b3480156101fd57600080fd5b506102186004803603610213919081019061147a565b6105e8565b604051610225919061167a565b60405180910390f35b34801561023a57600080fd5b5061025560048036036102509190810190611350565b61061b565b005b610271600480360361026c919081019061147a565b6107ff565b005b34801561027f57600080fd5b5061029a6004803603610295919081019061147a565b6108a4565b6040516102a7919061167a565b60405180910390f35b3480156102bc57600080fd5b506102d760048036036102d2919081019061147a565b6108e1565b6040516102e491906117f9565b60405180910390f35b3480156102f957600080fd5b50610314600480360361030f919081019061147a565b6108f9565b604051610328989796959493929190611758565b60405180910390f35b34801561033d57600080fd5b50610358600480360361035391908101906114a3565b610c53565b005b34801561036657600080fd5b50610381600480360361037c919081019061147a565b610e6c565b60405161038e91906117f9565b60405180910390f35b60066020528060005260406000206000915090508054600181600116156101000203166002900480601f01602080910402602001604051908101604052809291908181526020018280546001816001161561010002031660029004801561043f5780601f106104145761010080835404028352916020019161043f565b820191906000526020600020905b81548152906001019060200180831161042257829003601f168201915b505050505081565b6000806003836040518082805190602001908083835b602083101515610482578051825260208201915060208101905060208303925061045d565b6001836020036101000a038019825116818451168082178552505050505050905001915050908152602001604051809103902054905080915050919050565b60015481565b6001600081548092919060010191905055506105156004600083815260200190815260200160002060009054906101000a900473ffffffffffffffffffffffffffffffffffffffff16610e84565b600660006001548152602001908152602001600020908051906020019061053d92919061116c565b5050565b60005481565b60076000828152602001908152602001600020600081548092919060010191905055506001600760008381526020019081526020016000205411156105e55760006002600083815260200190815260200160002060060160006101000a81548160ff02191690831515021790555060006002600083815260200190815260200160002060060160016101000a81548160ff0219169083151502179055505b50565b60046020528060005260406000206000915054906101000a900473ffffffffffffffffffffffffffffffffffffffff1681565b60008081548092919060010191905055506101006040519081016040528089815260200188815260200187815260200186815260200185815260200184815260200183151581526020018215158152506002600080548152602001908152602001600020600082015181600001908051906020019061069b9291906111ec565b5060208201518160010190805190602001906106b89291906111ec565b5060408201518160020190805190602001906106d59291906111ec565b5060608201518160030190805190602001906106f29291906111ec565b50608082015181600401908051906020019061070f9291906111ec565b5060a0820151816005015560c08201518160060160006101000a81548160ff02191690831515021790555060e08201518160060160016101000a81548160ff02191690831515021790555090505033600460008054815260200190815260200160002060006101000a81548173ffffffffffffffffffffffffffffffffffffffff021916908373ffffffffffffffffffffffffffffffffffffffff1602179055507ffd371559d2d5e70ca6e0800d5837b76c50c7081cb03662aa7ba96db4a3ed206888888888888888886040516107ed9897969594939291906116b7565b60405180910390a15050505050505050565b6001600560008381526020019081526020016000206000828254019250508190555060006004600083815260200190815260200160002060009054906101000a900473ffffffffffffffffffffffffffffffffffffffff1690508073ffffffffffffffffffffffffffffffffffffffff166108fc349081150290604051600060405180830381858888f1935050505015801561089f573d6000803e3d6000fd5b505050565b60006004600083815260200190815260200160002060009054906101000a900473ffffffffffffffffffffffffffffffffffffffff169050919050565b60076020528060005260406000206000915090505481565b6002602052806000526040600020600091509050806000018054600181600116156101000203166002900480601f0160208091040260200160405190810160405280929190818152602001828054600181600116156101000203166002900480156109a55780601f1061097a576101008083540402835291602001916109a5565b820191906000526020600020905b81548152906001019060200180831161098857829003601f168201915b505050505090806001018054600181600116156101000203166002900480601f016020809104026020016040519081016040528092919081815260200182805460018160011615610100020316600290048015610a435780601f10610a1857610100808354040283529160200191610a43565b820191906000526020600020905b815481529060010190602001808311610a2657829003601f168201915b505050505090806002018054600181600116156101000203166002900480601f016020809104026020016040519081016040528092919081815260200182805460018160011615610100020316600290048015610ae15780601f10610ab657610100808354040283529160200191610ae1565b820191906000526020600020905b815481529060010190602001808311610ac457829003601f168201915b505050505090806003018054600181600116156101000203166002900480601f016020809104026020016040519081016040528092919081815260200182805460018160011615610100020316600290048015610b7f5780601f10610b5457610100808354040283529160200191610b7f565b820191906000526020600020905b815481529060010190602001808311610b6257829003601f168201915b505050505090806004018054600181600116156101000203166002900480601f016020809104026020016040519081016040528092919081815260200182805460018160011615610100020316600290048015610c1d5780601f10610bf257610100808354040283529160200191610c1d565b820191906000526020600020905b815481529060010190602001808311610c0057829003601f168201915b5050505050908060050154908060060160009054906101000a900460ff16908060060160019054906101000a900460ff16905088565b60011515821515148015610c6b575060011515811515145b15610cec576003876040518082805190602001908083835b602083101515610ca85780518252602082019150602081019050602083039250610c83565b6001836020036101000a0380198251168184511680821785525050505050509050019150509081526020016040518091039020600081548092919060010191905055505b610100604051908101604052808981526020018881526020018781526020018681526020018581526020018481526020018315158152602001821515815250600260008b81526020019081526020016000206000820151816000019080519060200190610d5a9291906111ec565b506020820151816001019080519060200190610d779291906111ec565b506040820151816002019080519060200190610d949291906111ec565b506060820151816003019080519060200190610db19291906111ec565b506080820151816004019080519060200190610dce9291906111ec565b5060a0820151816005015560c08201518160060160006101000a81548160ff02191690831515021790555060e08201518160060160016101000a81548160ff0219169083151502179055509050507ffd371559d2d5e70ca6e0800d5837b76c50c7081cb03662aa7ba96db4a3ed20688888888888888888604051610e599897969594939291906116b7565b60405180910390a1505050505050505050565b60056020528060005260406000206000915090505481565b60608060286040519080825280601f01601f191660200182016040528015610ebb5781602001600182028038833980820191505090505b50905060008090505b60148110156110905760008160130360080260020a8573ffffffffffffffffffffffffffffffffffffffff16811515610ef957fe5b047f010000000000000000000000000000000000000000000000000000000000000002905060006010827f0100000000000000000000000000000000000000000000000000000000000000900460ff16811515610f5257fe5b047f01000000000000000000000000000000000000000000000000000000000000000290506000817f01000000000000000000000000000000000000000000000000000000000000009004601002837f01000000000000000000000000000000000000000000000000000000000000009004037f0100000000000000000000000000000000000000000000000000000000000000029050610ff28261109a565b858560020281518110151561100357fe5b9060200101907effffffffffffffffffffffffffffffffffffffffffffffffffffffffffffff1916908160001a90535061103c8161109a565b856001866002020181518110151561105057fe5b9060200101907effffffffffffffffffffffffffffffffffffffffffffffffffffffffffffff1916908160001a9053505050508080600101915050610ec4565b5080915050919050565b6000600a827f0100000000000000000000000000000000000000000000000000000000000000900460ff16101561111b576030827f01000000000000000000000000000000000000000000000000000000000000009004017f0100000000000000000000000000000000000000000000000000000000000000029050611167565b6057827f01000000000000000000000000000000000000000000000000000000000000009004017f01000000000000000000000000000000000000000000000000000000000000000290505b919050565b828054600181600116156101000203166002900490600052602060002090601f016020900481019282601f106111ad57805160ff19168380011785556111db565b828001600101855582156111db579182015b828111156111da5782518255916020019190600101906111bf565b5b5090506111e8919061126c565b5090565b828054600181600116156101000203166002900490600052602060002090601f016020900481019282601f1061122d57805160ff191683800117855561125b565b8280016001018555821561125b579182015b8281111561125a57825182559160200191906001019061123f565b5b509050611268919061126c565b5090565b61128e91905b8082111561128a576000816000905550600101611272565b5090565b90565b600061129d82356118cb565b905092915050565b600082601f83011215156112b857600080fd5b81356112cb6112c682611841565b611814565b915080825260208301602083018583830111156112e757600080fd5b6112f28382846118e1565b50505092915050565b600061130782356118d7565b905092915050565b60006020828403121561132157600080fd5b600082013567ffffffffffffffff81111561133b57600080fd5b611347848285016112a5565b91505092915050565b600080600080600080600080610100898b03121561136d57600080fd5b600089013567ffffffffffffffff81111561138757600080fd5b6113938b828c016112a5565b985050602089013567ffffffffffffffff8111156113b057600080fd5b6113bc8b828c016112a5565b975050604089013567ffffffffffffffff8111156113d957600080fd5b6113e58b828c016112a5565b965050606089013567ffffffffffffffff81111561140257600080fd5b61140e8b828c016112a5565b955050608089013567ffffffffffffffff81111561142b57600080fd5b6114378b828c016112a5565b94505060a06114488b828c016112fb565b93505060c06114598b828c01611291565b92505060e061146a8b828c01611291565b9150509295985092959890939650565b60006020828403121561148c57600080fd5b600061149a848285016112fb565b91505092915050565b60008060008060008060008060006101208a8c0312156114c257600080fd5b60006114d08c828d016112fb565b99505060208a013567ffffffffffffffff8111156114ed57600080fd5b6114f98c828d016112a5565b98505060408a013567ffffffffffffffff81111561151657600080fd5b6115228c828d016112a5565b97505060608a013567ffffffffffffffff81111561153f57600080fd5b61154b8c828d016112a5565b96505060808a013567ffffffffffffffff81111561156857600080fd5b6115748c828d016112a5565b95505060a08a013567ffffffffffffffff81111561159157600080fd5b61159d8c828d016112a5565b94505060c06115ae8c828d016112fb565b93505060e06115bf8c828d01611291565b9250506101006115d18c828d01611291565b9150509295985092959850929598565b6115ea81611883565b82525050565b6115f981611895565b82525050565b600061160a82611878565b80845261161e8160208601602086016118f0565b61162781611923565b602085010191505092915050565b60006116408261186d565b8084526116548160208601602086016118f0565b61165d81611923565b602085010191505092915050565b611674816118c1565b82525050565b600060208201905061168f60008301846115e1565b92915050565b600060208201905081810360008301526116af8184611635565b905092915050565b60006101008201905081810360008301526116d2818b6115ff565b905081810360208301526116e6818a6115ff565b905081810360408301526116fa81896115ff565b9050818103606083015261170e81886115ff565b9050818103608083015261172281876115ff565b905061173160a083018661166b565b61173e60c08301856115f0565b61174b60e08301846115f0565b9998505050505050505050565b6000610100820190508181036000830152611773818b611635565b90508181036020830152611787818a611635565b9050818103604083015261179b8189611635565b905081810360608301526117af8188611635565b905081810360808301526117c38187611635565b90506117d260a083018661166b565b6117df60c08301856115f0565b6117ec60e08301846115f0565b9998505050505050505050565b600060208201905061180e600083018461166b565b92915050565b6000604051905081810181811067ffffffffffffffff8211171561183757600080fd5b8060405250919050565b600067ffffffffffffffff82111561185857600080fd5b601f19601f8301169050602081019050919050565b600081519050919050565b600081519050919050565b600061188e826118a1565b9050919050565b60008115159050919050565b600073ffffffffffffffffffffffffffffffffffffffff82169050919050565b6000819050919050565b60008115159050919050565b6000819050919050565b82818337600083830152505050565b60005b8381101561190e5780820151818401526020810190506118f3565b8381111561191d576000848401525b50505050565b6000601f19601f830116905091905056fea265627a7a72305820d26ce9e8b9202997615d41cf510590696dc7f187cc89da51361cc58f9fd5894e6c6578706572696d656e74616cf50037",
  "source": "// SPDX-License-Identifier: MIT\r\npragma experimental ABIEncoderV2;\r\npragma solidity ^0.5.1;\r\n\r\ncontract CrowdSource {\r\n    // Problem[] problems;\r\n    uint256 public problemCount;\r\n    uint256 public contributionCount;\r\n\r\n    mapping(uint256 => Problem) public problems;\r\n\r\n    // CQT - Count of Questions per Topic\r\n    mapping(string => uint256) cqt;\r\n\r\n    //uint is id\r\n    mapping(uint256 => address payable) public owner;\r\n    // id => amount\r\n    mapping(uint256 => uint256) public pool;\r\n\r\n    mapping(uint256 => string) public contributions;\r\n\r\n    //report count id(uint)=>uint(count)\r\n    mapping(uint256 => uint256) public reportClicks;\r\n\r\n    event SubmitQuestion(\r\n        string subject,\r\n        string topic,\r\n        string question,\r\n        string options,\r\n        string imgHash,\r\n        uint256 ans,\r\n        bool approve,\r\n        bool isApproved\r\n    );\r\n\r\n    struct Problem {\r\n        string subject;\r\n        string topic;\r\n        string question;\r\n        string options;\r\n        string imgHash;\r\n        uint256 ans;\r\n        bool approve;\r\n        bool isApproved;\r\n    }\r\n\r\n    function addToBlockchain(\r\n        string memory _subject,\r\n        string memory _topic,\r\n        string memory _question,\r\n        string memory _options,\r\n        string memory _imgHash,\r\n        uint256 _ans,\r\n        bool _approve,\r\n        bool _isApproved\r\n    ) public {\r\n        problemCount++;\r\n        problems[problemCount] = Problem(\r\n            _subject,\r\n            _topic,\r\n            _question,\r\n            _options,\r\n            _imgHash,\r\n            _ans,\r\n            _approve,\r\n            _isApproved\r\n        );\r\n        //Added this\r\n        owner[problemCount] = msg.sender;\r\n        emit SubmitQuestion(\r\n            _subject,\r\n            _topic,\r\n            _question,\r\n            _options,\r\n            _imgHash,\r\n            _ans,\r\n            _approve,\r\n            _isApproved\r\n        );\r\n    }\r\n\r\n    function questionAcceptReject(\r\n        uint256 _problemCount,\r\n        string memory _subject,\r\n        string memory _topic,\r\n        string memory _question,\r\n        string memory _options,\r\n        string memory _imgHash,\r\n        uint256 _ans,\r\n        bool _approve,\r\n        bool _isApproved\r\n    ) public {\r\n        if (_approve == true && _isApproved == true) {\r\n            cqt[_topic]++;\r\n        }\r\n        problems[_problemCount] = Problem(\r\n            _subject,\r\n            _topic,\r\n            _question,\r\n            _options,\r\n            _imgHash,\r\n            _ans,\r\n            _approve,\r\n            _isApproved\r\n        );\r\n        // owner[uid]=msg.sender;\r\n        emit SubmitQuestion(\r\n            _subject,\r\n            _topic,\r\n            _question,\r\n            _options,\r\n            _imgHash,\r\n            _ans,\r\n            _approve,\r\n            _isApproved\r\n        );\r\n    }\r\n\r\n    function getCountOfTopic(string memory _topic)\r\n        public\r\n        view\r\n        returns (uint256)\r\n    {\r\n        uint256 count = cqt[_topic];\r\n        return count;\r\n    }\r\n\r\n    //   function increaseCountOfTopic(string memory _topic) public {\r\n    //     cqt[_topic]++;\r\n    // }\r\n\r\n    // function getAllQuestions() public view returns (Problem[] memory){\r\n    //     // Problem[] memory ret = new Problem[](problems.length);\r\n    //     // for (uint i = 0; i < problems.length; i++) {\r\n    //     //     ret[i] = problems[i];\r\n    //     // }\r\n    //     // return ret;\r\n    //     return problems;\r\n    // }\r\n\r\n    function contribute(uint256 _problemCount) public payable {\r\n        pool[_problemCount] += 1;\r\n        //Next two line is error\r\n        address payable _owner = owner[_problemCount];\r\n        address(_owner).transfer(msg.value);\r\n    }\r\n\r\n    function getOwner(uint256 _id) public view returns (address payable) {\r\n        return owner[_id];\r\n    }\r\n\r\n    function toAsciiString(address x) internal pure returns (string memory) {\r\n        bytes memory s = new bytes(40);\r\n        for (uint256 i = 0; i < 20; i++) {\r\n            bytes1 b = bytes1(uint8(uint256(uint160(x)) / (2**(8 * (19 - i)))));\r\n            bytes1 hi = bytes1(uint8(b) / 16);\r\n            bytes1 lo = bytes1(uint8(b) - 16 * uint8(hi));\r\n            s[2 * i] = char(hi);\r\n            s[2 * i + 1] = char(lo);\r\n        }\r\n        return string(s);\r\n    }\r\n\r\n    function char(bytes1 b) internal pure returns (bytes1 c) {\r\n        if (uint8(b) < 10) return bytes1(uint8(b) + 0x30);\r\n        else return bytes1(uint8(b) + 0x57);\r\n    }\r\n\r\n    function addAContribution(uint256 _id) public {\r\n        contributionCount++;\r\n        contributions[contributionCount] = toAsciiString(owner[_id]);\r\n    }\r\n\r\n    function report(uint256 _id) public {\r\n        reportClicks[_id]++;\r\n        if (reportClicks[_id] > 1) {\r\n            // Problem memory p=problems[_id];\r\n            // p.approve=false;\r\n            // p.isApproved=false;\r\n            // problems[_id]=p;\r\n            problems[_id].approve = false;\r\n            problems[_id].isApproved = false;\r\n        }\r\n    }\r\n}",
  "sourcePath": "C:\\Users\\divij\\crowdquest_sih\\contracts\\CrowdSource.sol",
  "compiler": {
    "name": "solc",
    "version": "0.5.1+commit.c8a2cb62.Emscripten.clang"
  },
  "schemaVersion": "3.4.4",
  "updatedAt": "2022-08-22T07:39:20.167Z",
  "networkType": "ethereum",
  "devdoc": {
    "methods": {}
  },
  "userdoc": {
    "methods": {}
  }
}