{
  "contractName": "CrowdSource",
  "abi": [
    {
      "anonymous": false,
      "inputs": [
        {
          "indexed": false,
          "name": "subject",
          "type": "string"
        },
        {
          "indexed": false,
          "name": "question",
          "type": "string"
        },
        {
          "indexed": false,
          "name": "options",
          "type": "string[]"
        },
        {
          "indexed": false,
          "name": "imgHash",
          "type": "string"
        },
        {
          "indexed": false,
          "name": "ans",
          "type": "uint256"
        },
        {
          "indexed": false,
          "name": "approve",
          "type": "bool"
        }
      ],
      "name": "SubmitQuestion",
      "type": "event"
    },
    {
      "constant": false,
      "inputs": [
        {
          "name": "_subject",
          "type": "string"
        },
        {
          "name": "_question",
          "type": "string"
        },
        {
          "name": "_options",
          "type": "string[]"
        },
        {
          "name": "_imgHash",
          "type": "string"
        },
        {
          "name": "_ans",
          "type": "uint256"
        },
        {
          "name": "_approve",
          "type": "bool"
        }
      ],
      "name": "addToBlockchain",
      "outputs": [],
      "payable": false,
      "stateMutability": "nonpayable",
      "type": "function"
    },
    {
      "constant": true,
      "inputs": [],
      "name": "getAllQuestions",
      "outputs": [
        {
          "components": [
            {
              "name": "subject",
              "type": "string"
            },
            {
              "name": "question",
              "type": "string"
            },
            {
              "name": "options",
              "type": "string[]"
            },
            {
              "name": "imgHash",
              "type": "string"
            },
            {
              "name": "ans",
              "type": "uint256"
            },
            {
              "name": "approve",
              "type": "bool"
            }
          ],
          "name": "",
          "type": "tuple[]"
        }
      ],
      "payable": false,
      "stateMutability": "view",
      "type": "function"
    }
  ],
  "bytecode": "0x608060405234801561001057600080fd5b50610de2806100206000396000f3fe608060405260043610610046576000357c0100000000000000000000000000000000000000000000000000000000900480632af9338e1461004b578063ce0e3e3f14610076575b600080fd5b34801561005757600080fd5b5061006061009f565b60405161006d9190610b58565b60405180910390f35b34801561008257600080fd5b5061009d600480360361009891908101906107fd565b6103f3565b005b60606000805480602002602001604051908101604052809291908181526020016000905b828210156103ea578382906000526020600020906006020160c06040519081016040529081600082018054600181600116156101000203166002900480601f0160208091040260200160405190810160405280929190818152602001828054600181600116156101000203166002900480156101805780601f1061015557610100808354040283529160200191610180565b820191906000526020600020905b81548152906001019060200180831161016357829003601f168201915b50505050508152602001600182018054600181600116156101000203166002900480601f0160208091040260200160405190810160405280929190818152602001828054600181600116156101000203166002900480156102225780601f106101f757610100808354040283529160200191610222565b820191906000526020600020905b81548152906001019060200180831161020557829003601f168201915b5050505050815260200160028201805480602002602001604051908101604052809291908181526020016000905b8282101561030c578382906000526020600020018054600181600116156101000203166002900480601f0160208091040260200160405190810160405280929190818152602001828054600181600116156101000203166002900480156102f85780601f106102cd576101008083540402835291602001916102f8565b820191906000526020600020905b8154815290600101906020018083116102db57829003601f168201915b505050505081526020019060010190610250565b505050508152602001600382018054600181600116156101000203166002900480601f0160208091040260200160405190810160405280929190818152602001828054600181600116156101000203166002900480156103ad5780601f10610382576101008083540402835291602001916103ad565b820191906000526020600020905b81548152906001019060200180831161039057829003601f168201915b50505050508152602001600482015481526020016005820160009054906101000a900460ff161515151581525050815260200190600101906100c3565b50505050905090565b600060c06040519081016040528088815260200187815260200186815260200185815260200184815260200183151581525090806001815401808255809150509060018203906000526020600020906006020160009091929091909150600082015181600001908051906020019061046c92919061053a565b50602082015181600101908051906020019061048992919061053a565b5060408201518160020190805190602001906104a69291906105ba565b5060608201518160030190805190602001906104c392919061053a565b506080820151816004015560a08201518160050160006101000a81548160ff0219169083151502179055505050507f1f58d7e126b2d85a9c1294b35b65683675c81f553b7efd66defda6169f46163b86868686868660405161052a96959493929190610b7a565b60405180910390a1505050505050565b828054600181600116156101000203166002900490600052602060002090601f016020900481019282601f1061057b57805160ff19168380011785556105a9565b828001600101855582156105a9579182015b828111156105a857825182559160200191906001019061058d565b5b5090506105b6919061061a565b5090565b828054828255906000526020600020908101928215610609579160200282015b828111156106085782518290805190602001906105f892919061053a565b50916020019190600101906105da565b5b509050610616919061063f565b5090565b61063c91905b80821115610638576000816000905550600101610620565b5090565b90565b61066891905b80821115610664576000818161065b919061066b565b50600101610645565b5090565b90565b50805460018160011615610100020316600290046000825580601f1061069157506106b0565b601f0160209004906000526020600020908101906106af919061061a565b5b50565b600082601f83011215156106c657600080fd5b81356106d96106d482610c24565b610bf7565b9150818183526020840193506020810190508360005b8381101561071f5781358601610705888261073d565b8452602084019350602083019250506001810190506106ef565b5050505092915050565b60006107358235610d3f565b905092915050565b600082601f830112151561075057600080fd5b813561076361075e82610c4c565b610bf7565b9150808252602083016020830185838301111561077f57600080fd5b61078a838284610d55565b50505092915050565b600082601f83011215156107a657600080fd5b81356107b96107b482610c78565b610bf7565b915080825260208301602083018583830111156107d557600080fd5b6107e0838284610d55565b50505092915050565b60006107f58235610d4b565b905092915050565b60008060008060008060c0878903121561081657600080fd5b600087013567ffffffffffffffff81111561083057600080fd5b61083c89828a01610793565b965050602087013567ffffffffffffffff81111561085957600080fd5b61086589828a01610793565b955050604087013567ffffffffffffffff81111561088257600080fd5b61088e89828a016106b3565b945050606087013567ffffffffffffffff8111156108ab57600080fd5b6108b789828a01610793565b93505060806108c889828a016107e9565b92505060a06108d989828a01610729565b9150509295509295509295565b60006108f182610cd6565b8084526020840193508360208202850161090a85610cb1565b60005b84811015610943578383038852610925838351610a75565b925061093082610d0f565b915060208801975060018101905061090d565b508196508694505050505092915050565b600061095f82610ccb565b8084526020840193508360208202850161097885610ca4565b60005b848110156109b1578383038852610993838351610a75565b925061099e82610d02565b915060208801975060018101905061097b565b508196508694505050505092915050565b60006109cd82610ce1565b808452602084019350836020820285016109e685610cbe565b60005b84811015610a1f578383038852610a01838351610aab565b9250610a0c82610d1c565b91506020880197506001810190506109e9565b508196508694505050505092915050565b610a3981610d29565b82525050565b6000610a4a82610cf7565b808452610a5e816020860160208601610d64565b610a6781610d97565b602085010191505092915050565b6000610a8082610cec565b808452610a94816020860160208601610d64565b610a9d81610d97565b602085010191505092915050565b600060c0830160008301518482036000860152610ac88282610a75565b91505060208301518482036020860152610ae28282610a75565b91505060408301518482036040860152610afc8282610954565b91505060608301518482036060860152610b168282610a75565b9150506080830151610b2b6080860182610b49565b5060a0830151610b3e60a0860182610a30565b508091505092915050565b610b5281610d35565b82525050565b60006020820190508181036000830152610b7281846109c2565b905092915050565b600060c0820190508181036000830152610b948189610a3f565b90508181036020830152610ba88188610a3f565b90508181036040830152610bbc81876108e6565b90508181036060830152610bd08186610a3f565b9050610bdf6080830185610b49565b610bec60a0830184610a30565b979650505050505050565b6000604051905081810181811067ffffffffffffffff82111715610c1a57600080fd5b8060405250919050565b600067ffffffffffffffff821115610c3b57600080fd5b602082029050602081019050919050565b600067ffffffffffffffff821115610c6357600080fd5b601f19601f8301169050602081019050919050565b600067ffffffffffffffff821115610c8f57600080fd5b601f19601f8301169050602081019050919050565b6000602082019050919050565b6000602082019050919050565b6000602082019050919050565b600081519050919050565b600081519050919050565b600081519050919050565b600081519050919050565b600081519050919050565b6000602082019050919050565b6000602082019050919050565b6000602082019050919050565b60008115159050919050565b6000819050919050565b60008115159050919050565b6000819050919050565b82818337600083830152505050565b60005b83811015610d82578082015181840152602081019050610d67565b83811115610d91576000848401525b50505050565b6000601f19601f830116905091905056fea265627a7a72305820abf679028534036acd4b39458798acf8e16a60504a69e87596ee1d21f07670fc6c6578706572696d656e74616cf50037",
  "source": "// SPDX-License-Identifier: MIT\r\npragma experimental ABIEncoderV2;\r\npragma solidity ^0.5.1;\r\n\r\ncontract CrowdSource {\r\n   \r\n    event SubmitQuestion(\r\n        string subject,\r\n        string question,\r\n        string[] options,\r\n        string imgHash,\r\n        uint256 ans,\r\n        bool approve\r\n    );\r\n\r\n    struct Problem {\r\n        string subject;\r\n        string question;\r\n        string[] options;\r\n        string imgHash;\r\n        uint256 ans;\r\n        bool approve;\r\n    }\r\n\r\n    Problem[] problems;\r\n\r\n    function addToBlockchain(\r\n        string memory _subject,\r\n        string memory _question,\r\n        string[] memory _options,\r\n        string memory _imgHash,\r\n        uint256 _ans,\r\n        bool _approve\r\n    ) public {\r\n        problems.push(Problem(_subject, _question, _options,_imgHash, _ans, _approve));\r\n\r\n        emit SubmitQuestion(_subject, _question, _options,_imgHash, _ans, _approve);\r\n    }\r\n\r\n    function getAllQuestions() public view returns (Problem[] memory) {\r\n        return problems;\r\n    }\r\n}\r\n",
  "sourcePath": "C:\\Users\\divij\\crowdquest_sih\\contracts\\CrowdSource.sol",
  "compiler": {
    "name": "solc",
    "version": "0.5.1+commit.c8a2cb62.Emscripten.clang"
  },
  "schemaVersion": "3.4.4",
  "updatedAt": "2022-07-23T08:18:25.732Z",
  "devdoc": {
    "methods": {}
  },
  "userdoc": {
    "methods": {}
  }
}